{
  "_format": "hh-sol-artifact-1",
  "contractName": "DigiCoin",
  "sourceName": "contracts/DigiCoin.sol",
  "abi": [
    {
      "inputs": [],
      "stateMutability": "nonpayable",
      "type": "constructor"
    },
    {
      "inputs": [
        {
          "internalType": "address",
          "name": "owner",
          "type": "address"
        }
      ],
      "name": "OwnableInvalidOwner",
      "type": "error"
    },
    {
      "inputs": [
        {
          "internalType": "address",
          "name": "account",
          "type": "address"
        }
      ],
      "name": "OwnableUnauthorizedAccount",
      "type": "error"
    },
    {
      "anonymous": false,
      "inputs": [
        {
          "indexed": true,
          "internalType": "address",
          "name": "previousOwner",
          "type": "address"
        },
        {
          "indexed": true,
          "internalType": "address",
          "name": "newOwner",
          "type": "address"
        }
      ],
      "name": "OwnershipTransferred",
      "type": "event"
    },
    {
      "anonymous": false,
      "inputs": [
        {
          "indexed": false,
          "internalType": "string",
          "name": "from",
          "type": "string"
        },
        {
          "indexed": false,
          "internalType": "string",
          "name": "to",
          "type": "string"
        },
        {
          "indexed": false,
          "internalType": "uint256",
          "name": "amount",
          "type": "uint256"
        }
      ],
      "name": "TransferRecorded",
      "type": "event"
    },
    {
      "inputs": [],
      "name": "owner",
      "outputs": [
        {
          "internalType": "address",
          "name": "",
          "type": "address"
        }
      ],
      "stateMutability": "view",
      "type": "function"
    },
    {
      "inputs": [
        {
          "internalType": "string",
          "name": "from",
          "type": "string"
        },
        {
          "internalType": "string",
          "name": "to",
          "type": "string"
        },
        {
          "internalType": "uint256",
          "name": "amount",
          "type": "uint256"
        }
      ],
      "name": "recordTransfer",
      "outputs": [],
      "stateMutability": "nonpayable",
      "type": "function"
    },
    {
      "inputs": [],
      "name": "renounceOwnership",
      "outputs": [],
      "stateMutability": "nonpayable",
      "type": "function"
    },
    {
      "inputs": [
        {
          "internalType": "address",
          "name": "newOwner",
          "type": "address"
        }
      ],
      "name": "transferOwnership",
      "outputs": [],
      "stateMutability": "nonpayable",
      "type": "function"
    }
  ],
  "bytecode": "0x608060405234801561001057600080fd5b5033600073ffffffffffffffffffffffffffffffffffffffff168173ffffffffffffffffffffffffffffffffffffffff16036100845760006040517f1e4fbdf700000000000000000000000000000000000000000000000000000000815260040161007b919061019e565b60405180910390fd5b6100938161009960201b60201c565b506101b9565b60008060009054906101000a900473ffffffffffffffffffffffffffffffffffffffff169050816000806101000a81548173ffffffffffffffffffffffffffffffffffffffff021916908373ffffffffffffffffffffffffffffffffffffffff1602179055508173ffffffffffffffffffffffffffffffffffffffff168173ffffffffffffffffffffffffffffffffffffffff167f8be0079c531659141344cd1fd0a4f28419497f9722a3daafe3b4186f6b6457e060405160405180910390a35050565b600073ffffffffffffffffffffffffffffffffffffffff82169050919050565b60006101888261015d565b9050919050565b6101988161017d565b82525050565b60006020820190506101b3600083018461018f565b92915050565b6106e8806101c86000396000f3fe608060405234801561001057600080fd5b506004361061004c5760003560e01c80635b81fea414610051578063715018a61461006d5780638da5cb5b14610077578063f2fde38b14610095575b600080fd5b61006b6004803603810190610066919061049f565b6100b1565b005b6100756100f9565b005b61007f61010d565b60405161008c919061056b565b60405180910390f35b6100af60048036038101906100aa91906105b2565b610136565b005b6100b96101bc565b7fb9fc90a6b22c58cb799277604a9b386b10ea7e169d39ecf5755d2d9efa24602a8383836040516100ec9392919061066d565b60405180910390a1505050565b6101016101bc565b61010b6000610243565b565b60008060009054906101000a900473ffffffffffffffffffffffffffffffffffffffff16905090565b61013e6101bc565b600073ffffffffffffffffffffffffffffffffffffffff168173ffffffffffffffffffffffffffffffffffffffff16036101b05760006040517f1e4fbdf70000000000000000000000000000000000000000000000000000000081526004016101a7919061056b565b60405180910390fd5b6101b981610243565b50565b6101c4610307565b73ffffffffffffffffffffffffffffffffffffffff166101e261010d565b73ffffffffffffffffffffffffffffffffffffffff161461024157610205610307565b6040517f118cdaa7000000000000000000000000000000000000000000000000000000008152600401610238919061056b565b60405180910390fd5b565b60008060009054906101000a900473ffffffffffffffffffffffffffffffffffffffff169050816000806101000a81548173ffffffffffffffffffffffffffffffffffffffff021916908373ffffffffffffffffffffffffffffffffffffffff1602179055508173ffffffffffffffffffffffffffffffffffffffff168173ffffffffffffffffffffffffffffffffffffffff167f8be0079c531659141344cd1fd0a4f28419497f9722a3daafe3b4186f6b6457e060405160405180910390a35050565b600033905090565b6000604051905090565b600080fd5b600080fd5b600080fd5b600080fd5b6000601f19601f8301169050919050565b7f4e487b7100000000000000000000000000000000000000000000000000000000600052604160045260246000fd5b6103768261032d565b810181811067ffffffffffffffff821117156103955761039461033e565b5b80604052505050565b60006103a861030f565b90506103b4828261036d565b919050565b600067ffffffffffffffff8211156103d4576103d361033e565b5b6103dd8261032d565b9050602081019050919050565b82818337600083830152505050565b600061040c610407846103b9565b61039e565b90508281526020810184848401111561042857610427610328565b5b6104338482856103ea565b509392505050565b600082601f8301126104505761044f610323565b5b81356104608482602086016103f9565b91505092915050565b6000819050919050565b61047c81610469565b811461048757600080fd5b50565b60008135905061049981610473565b92915050565b6000806000606084860312156104b8576104b7610319565b5b600084013567ffffffffffffffff8111156104d6576104d561031e565b5b6104e28682870161043b565b935050602084013567ffffffffffffffff8111156105035761050261031e565b5b61050f8682870161043b565b92505060406105208682870161048a565b9150509250925092565b600073ffffffffffffffffffffffffffffffffffffffff82169050919050565b60006105558261052a565b9050919050565b6105658161054a565b82525050565b6000602082019050610580600083018461055c565b92915050565b61058f8161054a565b811461059a57600080fd5b50565b6000813590506105ac81610586565b92915050565b6000602082840312156105c8576105c7610319565b5b60006105d68482850161059d565b91505092915050565b600081519050919050565b600082825260208201905092915050565b60005b838110156106195780820151818401526020810190506105fe565b60008484015250505050565b6000610630826105df565b61063a81856105ea565b935061064a8185602086016105fb565b6106538161032d565b840191505092915050565b61066781610469565b82525050565b600060608201905081810360008301526106878186610625565b9050818103602083015261069b8185610625565b90506106aa604083018461065e565b94935050505056fea26469706673582212204c206541d49a0a2fb93a026f29351be84cb2b915b0ddc6c92348a36edf8ac52764736f6c634300081b0033",
  "linkReferences": {},
  "deployedLinkReferences": {}
}